:1080000055425C0135D0085A8245001C3140FE2B98
:108010003F4000000F9308249242001C5C012F8314
:108020009F4F0E81001CF8233F4000000F93072450
:108030009242001C5C011F83CF43001CF923B24015
:10804000805A5C01B240522DC001F2400500D001BF
:10805000F2401100DE01F2401200DF018243C00154
:10806000D2D30502D2D30B02F2D080FF2402F2D089
:10807000C0FF2A02D2D3C005F2D080FFC005F24073
:108080000600C605C243C705F240D1FFC805F2F09D
:10809000FEFFC005D2D3DC053F40FA80B012B080AD
:1080A00032D01800034332D0F000FD3F3040F8805A
:1080B000073C5D42DD052DF3FC27C24ECE051F5364
:1080C0006E4F4E93F62330413F151F42DE052F932E
:1080D00011205F42CC055E42DD052EF3FC275E4297
:1080E000CC05C24ECE057F900D0004203F400C8190
:1080F000B012B0803C17001300130D0A4563686F7F
:10810000204578616D706C653E0D0A000A00FFFF26
:00000001FF
