:10800000B240805A5C013140FE2B3F4002000F938A
:1080100005242F839F4F928C001CFB233F40D600EA
:108020000F9304241F83CF43021CFC233B40008496
:108030003A400284BB120B9AFD232182A2D324036F
:108040005B42FF2B9242BCFFCC1C32C203436F4306
:10805000B012EE8AF240A5FF2101F2D080FF20018C
:10806000C2432101F2D003004A02B2F0FEFF6C01CC
:10807000B2D00C006C0182436601B240440068013A
:1080800032D0400082436001B24050006201B240F1
:108090006E11640132C040003E4090D03F4003006A
:1080A0001E83FE23B2F0F0FF6E01B2F0FDFF02016D
:1080B000A2B30201F723B2F03FFF6C01B24001020C
:1080C000340FB293CC1C0C244B930A244C437D40B8
:1080D00003004E433F40CE1CB0122885B0120090E2
:1080E0005D430E413F400018B0122A846F417F93D8
:1080F0000224C24FD01C6D430E413F400218B01203
:108100002A846E417E9308245F4101007F930424FA
:10811000C24ED11CC24FD21C5D433E40D41C3F40D6
:108120000518B0122A845F42D41C7F930224C24FE8
:10813000D31CC243CF1C7F403000B012F2887F4076
:108140003D00B012F2883F40CE1CB0126A85B2F0FA
:10815000FFFD360F5F42CE1CB012168AB2F0FFFD53
:10816000320F7F403400B012F288B2D00002360FD6
:1081700043120C434D435E433F40CE1CB0121A8B5A
:108180002153B240FE7F9203B24014018003203C91
:108190007F403800B012A4884B4F7F403B00B012A4
:1081A000A4881BB305244F930324B0128C84143C81
:1081B0001E4290031F4292030E9F0A204C437D40B3
:1081C00003004E433F40CE1CB0122885B0120090F1
:1081D0005F42891C4F93DC277C4005007D400300F3
:1081E0004E433F40CE1CB01228853A400090494390
:1081F000633C1F42861CC14F01008F10C14F00001D
:1082000063120C412C537D400B005E433F40CE1C5B
:10821000B0121A8B215379900A002420C293001CBB
:108220000B244C437D4003004E433F40CE1CB01214
:108230002885B0120090163C7F403600B012F288BC
:108240007F403200B012F288B240805A5C01F240A6
:10825000A5FF21018243240182432601C24321015B
:1082600032D0F800B240FE7F9203B2401401800386
:108270001C3C7F403800B012A4884B4F7F403B002D
:10828000B012A4881BB311244F930F247F403800F1
:10829000B012A4881FF3FA23A2D32203B0128C8455
:1082A000B2F0FDFF22034943073C1E4290031F42E8
:1082B00092030E9FDE2359535F42881C4F939927E8
:1082C000C243881C1E42821C5F42841C4C4F6C823D
:1082D0007F530D4E013C7C5D4B4D4B8E4B9FFB2BDA
:1082E0004D4C7DE35D534F4F0F5E6D9FE523CE9365
:1082F000020054206B4E8B105F4E01000BDFC293C7
:10830000001C1C24C243001C0B9A0B244C437D40D0
:1083100003004E433F40CE1CB0122885B01200909F
:108320000D3CA2D322030F4AB01206843A50000239
:108330003A90FFF7F82BB2F0FDFF22033B9080FF4D
:1083400020287B5080FF5F42841C3F50FDFF184275
:10835000821C0E433BF0F0003B50021C0E9F083481
:108360000C480C5E0D4B0D5EDD4C03000000043C20
:108370000D4B0D5EFD4300001E533E901000EE239A
:108380000A3C5D42841C6D821E42821C3E500300EA
:108390000F4BB01248849253861C8E3F3F4000FE24
:1083A000B0120684C243801CF2401000811CC243FC
:1083B000401CF24080FF411CC2433E1CF24090FF33
:1083C0003F1C384080FF0B430E4B5E0E7D4010007B
:1083D0003E50021C0F48B01248841B533850100006
:1083E0003B92F2234C437D4003004E433F40CE1C62
:1083F000B0122885B01200905F3F32D0F000FD3FF0
:108400003E853040888C92B34401FD23B24000A5E4
:108410004401B24002A54001CF43000092B34401A1
:10842000FD23B24010A5440130411B150C43073C0D
:108430000A4F0A5C0B4E0B5CEB4A00001C534C9D30
:10844000F72B4F4D1A1730412B151C4244011CF3DA
:10845000FC23B24000A54401B24040A540014B4D71
:10846000073C094E095C0A4F0A5CEA4900001C53AC
:108470000C9BF72B92B34401FD23B24000A54001B1
:10848000B24010A544014F4D291730413E408A1C8F
:108490003F40CE1CB01206884F934524C293C81C9F
:1084A00042245F428F1C4F933E383FF07F003B20B9
:1084B000B240921C821C5E428A1C4F4E7F50F9FFD4
:1084C000C24F841C5D42911C4D9304247D900B008F
:1084D0002A20143C5F42891C4F932520D243891CDB
:1084E0001E42821C0F43EF9E8A8C0324C243891CC8
:1084F00030411F531E533F92F62330417F9031008D
:10850000122C5F42921C8F105D42931C0FDD1F9254
:10851000861C0720B240941C821C7E50F7FFC24E7E
:10852000841CD243881C30412182C14C000053126C
:108530000C412C53B0121A8B3150060030413F4091
:10854000CE1CB01248853041CF430100CF4302001A
:10855000FF40B5FF0300FF4047000400FF407700E5
:108560000500FF406000000030412B150B4F7E409E
:1085700029004F43B012BA887E4006006F43B01204
:10858000BA887E4007007F400300B012BA887E4060
:108590003D007F400600B012BA887E4006007F4052
:1085A0000700B012BA887E4005007F42B012BA8838
:1085B0005A4B0400594B03004E496F42B012BA881F
:1085C0004E4A7F400500B012BA88CB490300CB4A1F
:1085D00004005A4B05004E4A7F400900B012BA8889
:1085E000CB4A05005A4B02004E4A7F400A00B012A7
:1085F000BA88CB4A02007E427F400B00B012BA8894
:108600004E437F400C00B012BA885A4B01005A9377
:1086100003246A931F200F3C7E4022007F400D0000
:10862000B012BA887E40B1FF7F400E00B012BA8807
:108630007E403B001D3C7E4010007F400D00B0128C
:10864000BA887E40A7FF7F400E00B012BA887E40F5
:1086500062000E3C7E4021007F400D00B012BA88BF
:108660007E4062007F400E00B012BA887E407600E5
:108670007F400F00B012BA88CB4A01007E40CAFF8B
:108680007F401000B012BA887E4083FF7F40110007
:10869000B012BA887E4093FF7F401200B012BA88B1
:1086A0007E4022007F401300B012BA887E40F8FF5F
:1086B0007F401400B012BA887E4035007F4015001C
:1086C000B012BA887E4018007F401800B012BA88F5
:1086D0007E4016007F401900B012BA887E406C00C0
:1086E0007F401A00B012BA887E4043007F401B00D2
:1086F000B012BA887E4043007F401C00B012BA8896
:108700007E4043007F401D00B012BA887E40560074
:108710007F402100B012BA887E4010007F402200C6
:10872000B012BA887E40E9FF7F402300B012BA88B9
:108730007E402A007F402400B012BA884E437F401A
:108740002500B012BA887E401F007F402600B0127C
:10875000BA887E4059007F402900B012BA887E4016
:1087600035007F402D00B012BA887E4009007F405E
:108770002E00B012BA88291730410B12B2F0FFFD5B
:10878000320FB2D00002360FB2F0FFFD360F7F403D
:108790003600B012F2887F403D00B012F2883FB040
:1087A000F000F9237F403A00B012F288B2F0FFFDEA
:1087B000320F0B412B527E4B7F407F00B012BA88A4
:1087C0005D4104000E4B7F407F00B012D2897F4094
:1087D0003500B012F2881F42320F3FB00002FB2773
:1087E000B2F0FFFD320FB2F0FFFD360FB2F0FFFD29
:1087F000320F7F403400B012F288B2D00002360F40
:108800005F433B4130410B123150C0FF0B4E7F4064
:108810003B00B012A4883FB07F002B244F9329382F
:108820007F904100262C4D4F0E417F43B012868928
:108830000F417D4FCB4D00000E4B033CFE4F01001E
:108840001E534C4E4C8B4C9DF92B4F4D5F534F4F4D
:108850000F51EB4F3F006D534D4D0D516F4D4E4F2E
:108860007EF07F00CB4E40005F0D5F09CB4F3E0096
:10887000023CCB4300007F403600B012F2887F40BC
:108880003A00B012F288B2F0FFFD320F7F403400A0
:10889000B012F288B2D00002360F6F4B3150400058
:1088A0003B4130410E4232C203437FD0C0FFC24F32
:1088B000130F5F42220F024E304121830C4232C21D
:1088C0000343B2B01000020FFC277FD040004F4F8F
:1088D0008F104E4E0F5E824F100FB2B02000020F6D
:1088E000FC275F42200F4F4F814F0000024C215365
:1088F00030412B154B4F7F90BDFF05247F50CFFF9C
:108900007F900C003D2C0A4232C20343B2F0BFFFFD
:10891000020FB2B01000020FFC274F4B7F50CFFF69
:108920007F900C00232C4F43B012A488494F7E4007
:1089300029004F43B012BA88C24B110FA2B2300FB8
:1089400010247B9032000D247B9039000A247B9008
:1089500038000724A2B2300FFD233D40C20C1D8316
:10896000FE234E494F43B012BA88023CC24B110F4E
:108970005F42210FB2B04000020FFC27024A013CC7
:108980004F43291730412B150B4232C20343B2B07B
:108990001000020FFC277FD0C0FFC24F130F0F4300
:1089A0004D4D0A4D3A530B3CB2B08000020FFC27EC
:1089B0005942220F0C4E0C5FCC4900001F530F9AF6
:1089C000F32B5F42200F0E5DCE4FFFFF024B2917A6
:1089D00030410B120B4232C20343B2B01000020FFF
:1089E000FC276C4E7FD040004F4F8F100C5F824CA5
:1089F000100F5F43093CD24E0100100FB2B02000AF
:108A0000020FFC275F531E534F9DF52B5F42200F33
:108A1000024B3B4130410B120B4232C203434C43E9
:108A20004E4F3E50007E273CB2B01000020FFC2794
:108A3000824E100FB2B01000020FFC27F2403D0032
:108A4000110FB2B01000020FFC27F240FEFF110F11
:108A5000B2B02000020FFC27C243100FB2B080005A
:108A6000020FFC275C42200FB2B01000020FFC275F
:108A7000F2403D00110F4C9FD723024B3B41304148
:108A8000F240A5FF21014D4F0E4D3E5044004E4E89
:108A90008E100E5D824E24013D500044824D260111
:108AA00092B32C01FD27C24F2001B2F0F9FF2C0137
:108AB000A2B32C010324A2B22C01FD27824E260171
:108AC000C24321013041F240A5FF21014D4F0E4D1F
:108AD0003E5044004E4E8E100E5D824E260192B3E3
:108AE0002C01FD27C24F2001C243210130411B153B
:108AF0004A4F5B4220017BF003004B9A042C5B53EE
:108B00004F4BB012808A4A9B042C7B534F4BB012C0
:108B1000C68A4B9AEE231A1730411B153150BEFFFF
:108B20000B4F5A4148004F4A7F500700C14F000089
:108B3000C14303005F42D61CC14F04005F53C24FC4
:108B4000D61CC14E05005F434E9301204F43C14FD9
:108B500001005F4B0600C14F02004E930320C14F3E
:108B60000600023CD1430600C14D07000D413D52B5
:108B70000E4C033CFD4E00001D534F4E4F8C4F9A40
:108B8000F92B3150BEFF3D4042000E413E504200A5
:108B90000F41B012A48B0F4BB0127A873150840072
:108BA0001A1730414B150D936D240F9E6B24332CF7
:108BB0000C4E0CDF1CF31B240C4E0CEF1CF3072097
:108BC0002D9307280B4E1BF32C430C8B033C0C4DB1
:108BD000013C1C430D8C0A4C094E0B4FFB49000015
:108BE0001B533A53FB230B4F0B5C0E5C013C0B4FAA
:108BF0000C4D5C030B24094C084E0A4BBA4800008C
:108C00002A533953FB235C020E5C0B5C1DF33A24A0
:108C1000EB4E0000373C0E5D0C4F0C5D0B4C0BDE39
:108C20001BF31B240B4C0BEE1BF306203D900300A3
:108C300003280B4E1BF3013C0B4D0D8B094E0A4CC8
:108C4000084B088C3A533953EA490000074A075841
:108C5000F9233BE31B530C5B0E5B0A4D5A030D24B7
:108C60000B4A084E094C28832983A94800003B532E
:108C7000FA230B8A5B020E5B0C5B1DF30324DC4EB4
:0A8C8000FFFFFFFF4717304100130C
:088C8A000000000100000010D1
:028C92000100DF
:10FF8000FFFFFFFFFFFFFFFFFFFFFFFFFFFFFFFF81
:10FF9000FFFFFFFFFFFFFFFFFFFFFFFFFFFFFFFF71
:10FFA000FFFFFFFFFFFFFFFFFFFFFFFFFFFFFFFF61
:10FFB000FFFFFFFFFFFFFFFFFFFFFFFFFFFFFFFF51
:10FFC0000284028402840284028402840284028401
:10FFD00002840284028402840284028402840284F1
:10FFE00002840284028402840284028402840284E1
:10FFF00002840284028402840284028402840080D7
:040000030000800079
:00000001FF
