:101000003140FE2BB240805A5C012182D2D30B02C8
:10101000B24010040007B24000020207B2D0030041
:101020000007034303433F4052001F83FE231F4238
:101030000A071FF34F93FB2782430A071F4220072B
:101040003F9010000928F2F0FDFF24023E40BEFF51
:101050002F4E3F930124204EB0120614E2D32402F7
:10106000E2D32202B240522DC001A2D3C201F2400B
:101070001200CE01F2401100CF018243C001F2D034
:1010800040000402F2D0C0FF0A02D243C005C243AE
:10109000C105C243D005C243C705F2400A00C605D8
:1010A000F24091FFC805F24080FFC005C143020035
:1010B0001743B0122A133F902400FB230B43B012B6
:1010C0002A133F9023000E20B0122A13C14F0000B4
:1010D000B0122A13C14F01000F41B012D213C14FF9
:1010E0000300063CCB4F001C1B533B908000E723C2
:1010F000CB43001C0F433E40001C6F5E4F4F1E53FE
:101100003B53FB235E4103000F9E03243F40E51247
:10111000D83C3F40E712B01236135F42001C7F906C
:101120006D0003247F904D007C203B40011C1B532D
:10113000FB902C000000FB23CB4300003F40011C30
:10114000B012D2130A4F0F4B1F531B53FB903A00A0
:101150000000FB23CB430000B012D213094F5F42C3
:10116000001C7F906D0034203F40E912B01236130E
:1011700008436D4A1A530E4D0E110E110E110E1129
:101180005B4ED412C14B00004B583DF00F005E4D3A
:10119000D412C14E01004B4B0B5E084B38F0FF00E0
:1011A0000F41B01236133953E4233BF00F00D14BFB
:1011B000D41201000F480F110F110F110F11D14F51
:1011C000D41200003F40EB12B01236130F41793CAD
:1011D0007F904D0026201B53B01256132A53079AB6
:1011E0000B2CE14B0000D14B010001000F41B0126C
:1011F000D213CA4FFEFF0A3CE14B0000D14B010065
:1012000001000F41B012D213CA4FBEFF39531A5317
:10121000099302242B53E33FB01268133F40ED12B1
:10122000503C5F42001C7F90710022205F41030010
:101230007F902E0017203B4000800F4BB0127A1396
:101240003B5000023B9000F8F8233F4000FEB012F4
:101250007A133E4000103F40FEFFB012A0133F4003
:10126000F4122F3C7F909AFF10203F40FF12293C40
:101270007F906B000A203F401113B01236135F427B
:10128000CA051FF3FC23824F5C015F42001C7F9064
:1012900067000F203F401613B01236133B403C004E
:1012A0003F401C13B01236133B53FA233F401E132A
:1012B000083C7F903F0003203F402213023C3F4008
:1012C0001113B01236133040B21032D0F000FD3F8F
:1012D0003040621430313233343536373839616258
:1012E00063646566002D002B0024002300244F4B0F
:1012F0002339610024366636623061236335002469
:101300005061636B657453697A653D3830233938B1
:1013100000242330300024303038300030002330B7
:1013200038002453303523623800D2B3DD05FD2761
:101330005F42CC053041073C1F535E42DD052EF372
:10134000FC27C24DCE056D4F4D93F623304192B32D
:101350004401FD233041B0124E13B24000A54401B8
:10136000B24040A540013041B0124E13B24000A53A
:101370004001B24010A5440130410B120B4FB01296
:101380004E13B24000A54401B24002A54001CB4338
:101390000000B0124E13B24010A544013B41304151
:1013A0000B120A120B4F0A4EB0124E13B24000A598
:1013B0004401B24040A540018B4A0000B0124E13D8
:1013C000B24000A54001B24010A544013A413B4162
:1013D00030410B120D4F0E437C4060000E5E0E5EDE
:1013E0000E5E0E5E6B4D4F4B4C9B03283F50D0FF63
:1013F000023C3F50A9FF0EDF1D53CD930000EE23AA
:101400000F4E3B413041B240522DC001A2D3C20128
:10141000F2400500D201E242D401F2400300D501BE
:101420008243C001F2D034000502F2D034000B0236
:10143000B2F0FFFE6C01B2D020006601B24044025F
:101440006801B24022006A01B2F0F4FF6E01B2F00E
:10145000FDFF0201A2B30201F723B2D055026801D9
:041460003041001304
:10FF8000D012D012D012D012D012D012D012D01261
:10FF9000D012D012D012D012D012D012D012D01251
:10FFA000D012D012D012D012D012D012D012D01241
:10FFB000D012D012D012D012D012D012D012D01231
:10FFC000D012D012D012D012D012D012D012D01221
:10FFD000D012D012D012D012D012D012D012D01211
:10FFE000D012D012D012D012D012D012D012D01201
:10FFF000D012D012D012D012D012D012D0120010C3
:0400000300001000E9
:00000001FF
